{
  "_format": "hh-sol-artifact-1",
  "contractName": "ImovelToken",
  "sourceName": "contracts/ImovelToken.sol",
  "abi": [
    {
      "inputs": [],
      "stateMutability": "nonpayable",
      "type": "constructor"
    },
    {
      "inputs": [],
      "name": "InvalidShortString",
      "type": "error"
    },
    {
      "inputs": [
        {
          "internalType": "string",
          "name": "str",
          "type": "string"
        }
      ],
      "name": "StringTooLong",
      "type": "error"
    },
    {
      "anonymous": false,
      "inputs": [
        {
          "indexed": true,
          "internalType": "address",
          "name": "owner",
          "type": "address"
        },
        {
          "indexed": true,
          "internalType": "address",
          "name": "approved",
          "type": "address"
        },
        {
          "indexed": true,
          "internalType": "uint256",
          "name": "tokenId",
          "type": "uint256"
        }
      ],
      "name": "Approval",
      "type": "event"
    },
    {
      "anonymous": false,
      "inputs": [
        {
          "indexed": true,
          "internalType": "address",
          "name": "owner",
          "type": "address"
        },
        {
          "indexed": true,
          "internalType": "address",
          "name": "operator",
          "type": "address"
        },
        {
          "indexed": false,
          "internalType": "bool",
          "name": "approved",
          "type": "bool"
        }
      ],
      "name": "ApprovalForAll",
      "type": "event"
    },
    {
      "anonymous": false,
      "inputs": [
        {
          "indexed": true,
          "internalType": "address",
          "name": "delegator",
          "type": "address"
        },
        {
          "indexed": true,
          "internalType": "address",
          "name": "fromDelegate",
          "type": "address"
        },
        {
          "indexed": true,
          "internalType": "address",
          "name": "toDelegate",
          "type": "address"
        }
      ],
      "name": "DelegateChanged",
      "type": "event"
    },
    {
      "anonymous": false,
      "inputs": [
        {
          "indexed": true,
          "internalType": "address",
          "name": "delegate",
          "type": "address"
        },
        {
          "indexed": false,
          "internalType": "uint256",
          "name": "previousBalance",
          "type": "uint256"
        },
        {
          "indexed": false,
          "internalType": "uint256",
          "name": "newBalance",
          "type": "uint256"
        }
      ],
      "name": "DelegateVotesChanged",
      "type": "event"
    },
    {
      "anonymous": false,
      "inputs": [],
      "name": "EIP712DomainChanged",
      "type": "event"
    },
    {
      "anonymous": false,
      "inputs": [
        {
          "indexed": true,
          "internalType": "bytes32",
          "name": "role",
          "type": "bytes32"
        },
        {
          "indexed": true,
          "internalType": "bytes32",
          "name": "previousAdminRole",
          "type": "bytes32"
        },
        {
          "indexed": true,
          "internalType": "bytes32",
          "name": "newAdminRole",
          "type": "bytes32"
        }
      ],
      "name": "RoleAdminChanged",
      "type": "event"
    },
    {
      "anonymous": false,
      "inputs": [
        {
          "indexed": true,
          "internalType": "bytes32",
          "name": "role",
          "type": "bytes32"
        },
        {
          "indexed": true,
          "internalType": "address",
          "name": "account",
          "type": "address"
        },
        {
          "indexed": true,
          "internalType": "address",
          "name": "sender",
          "type": "address"
        }
      ],
      "name": "RoleGranted",
      "type": "event"
    },
    {
      "anonymous": false,
      "inputs": [
        {
          "indexed": true,
          "internalType": "bytes32",
          "name": "role",
          "type": "bytes32"
        },
        {
          "indexed": true,
          "internalType": "address",
          "name": "account",
          "type": "address"
        },
        {
          "indexed": true,
          "internalType": "address",
          "name": "sender",
          "type": "address"
        }
      ],
      "name": "RoleRevoked",
      "type": "event"
    },
    {
      "anonymous": false,
      "inputs": [
        {
          "indexed": true,
          "internalType": "address",
          "name": "from",
          "type": "address"
        },
        {
          "indexed": true,
          "internalType": "address",
          "name": "to",
          "type": "address"
        },
        {
          "indexed": true,
          "internalType": "uint256",
          "name": "tokenId",
          "type": "uint256"
        }
      ],
      "name": "Transfer",
      "type": "event"
    },
    {
      "inputs": [],
      "name": "CLOCK_MODE",
      "outputs": [
        {
          "internalType": "string",
          "name": "",
          "type": "string"
        }
      ],
      "stateMutability": "view",
      "type": "function"
    },
    {
      "inputs": [],
      "name": "DEFAULT_ADMIN_ROLE",
      "outputs": [
        {
          "internalType": "bytes32",
          "name": "",
          "type": "bytes32"
        }
      ],
      "stateMutability": "view",
      "type": "function"
    },
    {
      "inputs": [],
      "name": "DOMAIN_SEPARATOR",
      "outputs": [
        {
          "internalType": "bytes32",
          "name": "",
          "type": "bytes32"
        }
      ],
      "stateMutability": "view",
      "type": "function"
    },
    {
      "inputs": [],
      "name": "MINTER_ROLE",
      "outputs": [
        {
          "internalType": "bytes32",
          "name": "",
          "type": "bytes32"
        }
      ],
      "stateMutability": "view",
      "type": "function"
    },
    {
      "inputs": [
        {
          "internalType": "address",
          "name": "to",
          "type": "address"
        },
        {
          "internalType": "uint256",
          "name": "tokenId",
          "type": "uint256"
        }
      ],
      "name": "approve",
      "outputs": [],
      "stateMutability": "nonpayable",
      "type": "function"
    },
    {
      "inputs": [
        {
          "internalType": "address",
          "name": "owner",
          "type": "address"
        }
      ],
      "name": "balanceOf",
      "outputs": [
        {
          "internalType": "uint256",
          "name": "",
          "type": "uint256"
        }
      ],
      "stateMutability": "view",
      "type": "function"
    },
    {
      "inputs": [
        {
          "internalType": "uint256",
          "name": "tokenId",
          "type": "uint256"
        }
      ],
      "name": "burn",
      "outputs": [],
      "stateMutability": "nonpayable",
      "type": "function"
    },
    {
      "inputs": [],
      "name": "clock",
      "outputs": [
        {
          "internalType": "uint48",
          "name": "",
          "type": "uint48"
        }
      ],
      "stateMutability": "view",
      "type": "function"
    },
    {
      "inputs": [
        {
          "internalType": "address",
          "name": "delegatee",
          "type": "address"
        }
      ],
      "name": "delegate",
      "outputs": [],
      "stateMutability": "nonpayable",
      "type": "function"
    },
    {
      "inputs": [
        {
          "internalType": "address",
          "name": "delegatee",
          "type": "address"
        },
        {
          "internalType": "uint256",
          "name": "nonce",
          "type": "uint256"
        },
        {
          "internalType": "uint256",
          "name": "expiry",
          "type": "uint256"
        },
        {
          "internalType": "uint8",
          "name": "v",
          "type": "uint8"
        },
        {
          "internalType": "bytes32",
          "name": "r",
          "type": "bytes32"
        },
        {
          "internalType": "bytes32",
          "name": "s",
          "type": "bytes32"
        }
      ],
      "name": "delegateBySig",
      "outputs": [],
      "stateMutability": "nonpayable",
      "type": "function"
    },
    {
      "inputs": [
        {
          "internalType": "address",
          "name": "account",
          "type": "address"
        }
      ],
      "name": "delegates",
      "outputs": [
        {
          "internalType": "address",
          "name": "",
          "type": "address"
        }
      ],
      "stateMutability": "view",
      "type": "function"
    },
    {
      "inputs": [],
      "name": "eip712Domain",
      "outputs": [
        {
          "internalType": "bytes1",
          "name": "fields",
          "type": "bytes1"
        },
        {
          "internalType": "string",
          "name": "name",
          "type": "string"
        },
        {
          "internalType": "string",
          "name": "version",
          "type": "string"
        },
        {
          "internalType": "uint256",
          "name": "chainId",
          "type": "uint256"
        },
        {
          "internalType": "address",
          "name": "verifyingContract",
          "type": "address"
        },
        {
          "internalType": "bytes32",
          "name": "salt",
          "type": "bytes32"
        },
        {
          "internalType": "uint256[]",
          "name": "extensions",
          "type": "uint256[]"
        }
      ],
      "stateMutability": "view",
      "type": "function"
    },
    {
      "inputs": [
        {
          "internalType": "uint256",
          "name": "tokenId",
          "type": "uint256"
        }
      ],
      "name": "getApproved",
      "outputs": [
        {
          "internalType": "address",
          "name": "",
          "type": "address"
        }
      ],
      "stateMutability": "view",
      "type": "function"
    },
    {
      "inputs": [
        {
          "internalType": "uint256",
          "name": "timepoint",
          "type": "uint256"
        }
      ],
      "name": "getPastTotalSupply",
      "outputs": [
        {
          "internalType": "uint256",
          "name": "",
          "type": "uint256"
        }
      ],
      "stateMutability": "view",
      "type": "function"
    },
    {
      "inputs": [
        {
          "internalType": "address",
          "name": "account",
          "type": "address"
        },
        {
          "internalType": "uint256",
          "name": "timepoint",
          "type": "uint256"
        }
      ],
      "name": "getPastVotes",
      "outputs": [
        {
          "internalType": "uint256",
          "name": "",
          "type": "uint256"
        }
      ],
      "stateMutability": "view",
      "type": "function"
    },
    {
      "inputs": [
        {
          "internalType": "bytes32",
          "name": "role",
          "type": "bytes32"
        }
      ],
      "name": "getRoleAdmin",
      "outputs": [
        {
          "internalType": "bytes32",
          "name": "",
          "type": "bytes32"
        }
      ],
      "stateMutability": "view",
      "type": "function"
    },
    {
      "inputs": [
        {
          "internalType": "address",
          "name": "account",
          "type": "address"
        }
      ],
      "name": "getVotes",
      "outputs": [
        {
          "internalType": "uint256",
          "name": "",
          "type": "uint256"
        }
      ],
      "stateMutability": "view",
      "type": "function"
    },
    {
      "inputs": [
        {
          "internalType": "bytes32",
          "name": "role",
          "type": "bytes32"
        },
        {
          "internalType": "address",
          "name": "account",
          "type": "address"
        }
      ],
      "name": "grantRole",
      "outputs": [],
      "stateMutability": "nonpayable",
      "type": "function"
    },
    {
      "inputs": [
        {
          "internalType": "bytes32",
          "name": "role",
          "type": "bytes32"
        },
        {
          "internalType": "address",
          "name": "account",
          "type": "address"
        }
      ],
      "name": "hasRole",
      "outputs": [
        {
          "internalType": "bool",
          "name": "",
          "type": "bool"
        }
      ],
      "stateMutability": "view",
      "type": "function"
    },
    {
      "inputs": [
        {
          "internalType": "address",
          "name": "owner",
          "type": "address"
        },
        {
          "internalType": "address",
          "name": "operator",
          "type": "address"
        }
      ],
      "name": "isApprovedForAll",
      "outputs": [
        {
          "internalType": "bool",
          "name": "",
          "type": "bool"
        }
      ],
      "stateMutability": "view",
      "type": "function"
    },
    {
      "inputs": [],
      "name": "name",
      "outputs": [
        {
          "internalType": "string",
          "name": "",
          "type": "string"
        }
      ],
      "stateMutability": "view",
      "type": "function"
    },
    {
      "inputs": [
        {
          "internalType": "address",
          "name": "owner",
          "type": "address"
        }
      ],
      "name": "nonces",
      "outputs": [
        {
          "internalType": "uint256",
          "name": "",
          "type": "uint256"
        }
      ],
      "stateMutability": "view",
      "type": "function"
    },
    {
      "inputs": [
        {
          "internalType": "uint256",
          "name": "tokenId",
          "type": "uint256"
        }
      ],
      "name": "ownerOf",
      "outputs": [
        {
          "internalType": "address",
          "name": "",
          "type": "address"
        }
      ],
      "stateMutability": "view",
      "type": "function"
    },
    {
      "inputs": [
        {
          "internalType": "bytes32",
          "name": "role",
          "type": "bytes32"
        },
        {
          "internalType": "address",
          "name": "account",
          "type": "address"
        }
      ],
      "name": "renounceRole",
      "outputs": [],
      "stateMutability": "nonpayable",
      "type": "function"
    },
    {
      "inputs": [
        {
          "internalType": "bytes32",
          "name": "role",
          "type": "bytes32"
        },
        {
          "internalType": "address",
          "name": "account",
          "type": "address"
        }
      ],
      "name": "revokeRole",
      "outputs": [],
      "stateMutability": "nonpayable",
      "type": "function"
    },
    {
      "inputs": [
        {
          "internalType": "address",
          "name": "to",
          "type": "address"
        }
      ],
      "name": "safeMint",
      "outputs": [],
      "stateMutability": "nonpayable",
      "type": "function"
    },
    {
      "inputs": [
        {
          "internalType": "address",
          "name": "from",
          "type": "address"
        },
        {
          "internalType": "address",
          "name": "to",
          "type": "address"
        },
        {
          "internalType": "uint256",
          "name": "tokenId",
          "type": "uint256"
        }
      ],
      "name": "safeTransferFrom",
      "outputs": [],
      "stateMutability": "nonpayable",
      "type": "function"
    },
    {
      "inputs": [
        {
          "internalType": "address",
          "name": "from",
          "type": "address"
        },
        {
          "internalType": "address",
          "name": "to",
          "type": "address"
        },
        {
          "internalType": "uint256",
          "name": "tokenId",
          "type": "uint256"
        },
        {
          "internalType": "bytes",
          "name": "data",
          "type": "bytes"
        }
      ],
      "name": "safeTransferFrom",
      "outputs": [],
      "stateMutability": "nonpayable",
      "type": "function"
    },
    {
      "inputs": [
        {
          "internalType": "address",
          "name": "operator",
          "type": "address"
        },
        {
          "internalType": "bool",
          "name": "approved",
          "type": "bool"
        }
      ],
      "name": "setApprovalForAll",
      "outputs": [],
      "stateMutability": "nonpayable",
      "type": "function"
    },
    {
      "inputs": [
        {
          "internalType": "bytes4",
          "name": "interfaceId",
          "type": "bytes4"
        }
      ],
      "name": "supportsInterface",
      "outputs": [
        {
          "internalType": "bool",
          "name": "",
          "type": "bool"
        }
      ],
      "stateMutability": "view",
      "type": "function"
    },
    {
      "inputs": [],
      "name": "symbol",
      "outputs": [
        {
          "internalType": "string",
          "name": "",
          "type": "string"
        }
      ],
      "stateMutability": "view",
      "type": "function"
    },
    {
      "inputs": [
        {
          "internalType": "uint256",
          "name": "index",
          "type": "uint256"
        }
      ],
      "name": "tokenByIndex",
      "outputs": [
        {
          "internalType": "uint256",
          "name": "",
          "type": "uint256"
        }
      ],
      "stateMutability": "view",
      "type": "function"
    },
    {
      "inputs": [
        {
          "internalType": "address",
          "name": "owner",
          "type": "address"
        },
        {
          "internalType": "uint256",
          "name": "index",
          "type": "uint256"
        }
      ],
      "name": "tokenOfOwnerByIndex",
      "outputs": [
        {
          "internalType": "uint256",
          "name": "",
          "type": "uint256"
        }
      ],
      "stateMutability": "view",
      "type": "function"
    },
    {
      "inputs": [
        {
          "internalType": "uint256",
          "name": "tokenId",
          "type": "uint256"
        }
      ],
      "name": "tokenURI",
      "outputs": [
        {
          "internalType": "string",
          "name": "",
          "type": "string"
        }
      ],
      "stateMutability": "view",
      "type": "function"
    },
    {
      "inputs": [],
      "name": "totalSupply",
      "outputs": [
        {
          "internalType": "uint256",
          "name": "",
          "type": "uint256"
        }
      ],
      "stateMutability": "view",
      "type": "function"
    },
    {
      "inputs": [
        {
          "internalType": "address",
          "name": "from",
          "type": "address"
        },
        {
          "internalType": "address",
          "name": "to",
          "type": "address"
        },
        {
          "internalType": "uint256",
          "name": "tokenId",
          "type": "uint256"
        }
      ],
      "name": "transferFrom",
      "outputs": [],
      "stateMutability": "nonpayable",
      "type": "function"
    }
  ],
  "bytecode": "0x6101606040523480156200001257600080fd5b5060405180604001604052806006815260200165125b5bdd995b60d21b815250604051806040016040528060018152602001603160f81b81525060405180604001604052806006815260200165125b5bdd995b60d21b8152506040518060400160405280600381526020016224a6ab60e91b81525081600090805190602001906200009f9291906200030e565b508051620000b59060019060208401906200030e565b505050620000d3600b83620001c660201b62000f821790919060201c565b61012052620000f081600c620001c6602090811b62000f8217901c565b61014052815160208084019190912060e052815190820120610100524660a0526200017e60e05161010051604080517f8b73c3c69bb8fe3d512ecc4cf759cc79239f7b179b0ffacaa9a75d522b39400f60208201529081019290925260608201524660808201523060a082015260009060c00160405160208183030381529060405280519060200120905090565b60805250503060c052620001946000336200021a565b620001c07f9f2df0fed2c77648de5860a4cc508cd0818c85b8b8a1ab4ceeef8d981c8956a6336200021a565b6200046b565b6000602083511015620001e657620001de83620002bf565b905062000214565b82620001fd836200030b60201b62000fb91760201c565b81516200020e92602001906200030e565b5060ff90505b92915050565b6000828152600a602090815260408083206001600160a01b038516845290915290205460ff16620002bb576000828152600a602090815260408083206001600160a01b03851684529091529020805460ff191660011790556200027a3390565b6001600160a01b0316816001600160a01b0316837f2f8788117e7eff1d82e926ec794901d17c78024a50270940304540a733656f0d60405160405180910390a45b5050565b600080829050601f81511115620002f6578260405163305a27a960e01b8152600401620002ed9190620003b4565b60405180910390fd5b805162000303826200040c565b179392505050565b90565b8280546200031c9062000434565b90600052602060002090601f0160209004810192826200034057600085556200038b565b82601f106200035b57805160ff19168380011785556200038b565b828001600101855582156200038b579182015b828111156200038b5782518255916020019190600101906200036e565b50620003999291506200039d565b5090565b5b808211156200039957600081556001016200039e565b600060208083528351808285015260005b81811015620003e357858101830151858201604001528201620003c5565b81811115620003f6576000604083870101525b50601f01601f1916929092016040019392505050565b805160208083015191908110156200042e576000198160200360031b1b821691505b50919050565b600181811c908216806200044957607f821691505b602082108114156200042e57634e487b7160e01b600052602260045260246000fd5b60805160a05160c05160e0516101005161012051610140516134cf620004c66000396000610c4901526000610c1e01526000611410015260006113e8015260006113430152600061136d0152600061139701526134cf6000f3fe608060405234801561001057600080fd5b506004361061021c5760003560e01c80635c19a95c116101255780639ab24eb0116100ad578063c3cda5201161007c578063c3cda520146104af578063c87b56dd146104c2578063d5391393146104d5578063d547741f146104fc578063e985e9c51461050f57600080fd5b80639ab24eb01461046e578063a217fddf14610481578063a22cb46514610489578063b88d4fde1461049c57600080fd5b806384b0196e116100f457806384b0196e146104065780638e539e8c1461042157806391d148541461043457806391ddadf41461044757806395d89b411461046657600080fd5b80635c19a95c146103ba5780636352211e146103cd57806370a08231146103e05780637ecebe00146103f357600080fd5b80633644e515116101a857806342842e0e1161017757806342842e0e1461034d57806342966c68146103605780634bf5d7e9146103735780634f6ccce71461037b578063587cde1e1461038e57600080fd5b80633644e5151461030c57806336568abe146103145780633a46b1a81461032757806340d097c31461033a57600080fd5b806318160ddd116101ef57806318160ddd1461029e57806323b872dd146102b0578063248a9ca3146102c35780632f2ff15d146102e65780632f745c59146102f957600080fd5b806301ffc9a71461022157806306fdde0314610249578063081812fc1461025e578063095ea7b314610289575b600080fd5b61023461022f366004612d67565b61054b565b60405190151581526020015b60405180910390f35b61025161055c565b6040516102409190612ddc565b61027161026c366004612def565b6105ee565b6040516001600160a01b039091168152602001610240565b61029c610297366004612e24565b610615565b005b6008545b604051908152602001610240565b61029c6102be366004612e4e565b610730565b6102a26102d1366004612def565b6000908152600a602052604090206001015490565b61029c6102f4366004612e8a565b610762565b6102a2610307366004612e24565b610787565b6102a261081d565b61029c610322366004612e8a565b61082c565b6102a2610335366004612e24565b6108aa565b61029c610348366004612eb6565b61093b565b61029c61035b366004612e4e565b61098a565b61029c61036e366004612def565b6109a5565b6102516109d6565b6102a2610389366004612def565b610a6e565b61027161039c366004612eb6565b6001600160a01b039081166000908152600d60205260409020541690565b61029c6103c8366004612eb6565b610b01565b6102716103db366004612def565b610b0c565b6102a26103ee366004612eb6565b610b6c565b6102a2610401366004612eb6565b610bf2565b61040e610c10565b6040516102409796959493929190612ed1565b6102a261042f366004612def565b610c99565b610234610442366004612e8a565b610d13565b61044f610d3e565b60405165ffffffffffff9091168152602001610240565b610251610d49565b6102a261047c366004612eb6565b610d58565b6102a2600081565b61029c610497366004612f67565b610d79565b61029c6104aa366004612fb9565b610d84565b61029c6104bd366004613095565b610dbc565b6102516104d0366004612def565b610ee9565b6102a27f9f2df0fed2c77648de5860a4cc508cd0818c85b8b8a1ab4ceeef8d981c8956a681565b61029c61050a366004612e8a565b610f5d565b61023461051d3660046130f5565b6001600160a01b03918216600090815260056020908152604080832093909416825291909152205460ff1690565b600061055682610fbc565b92915050565b60606000805461056b9061311f565b80601f01602080910402602001604051908101604052809291908181526020018280546105979061311f565b80156105e45780601f106105b9576101008083540402835291602001916105e4565b820191906000526020600020905b8154815290600101906020018083116105c757829003601f168201915b5050505050905090565b60006105f982610fe1565b506000908152600460205260409020546001600160a01b031690565b600061062082610b0c565b9050806001600160a01b0316836001600160a01b031614156106935760405162461bcd60e51b815260206004820152602160248201527f4552433732313a20617070726f76616c20746f2063757272656e74206f776e656044820152603960f91b60648201526084015b60405180910390fd5b336001600160a01b03821614806106af57506106af813361051d565b6107215760405162461bcd60e51b815260206004820152603d60248201527f4552433732313a20617070726f76652063616c6c6572206973206e6f7420746f60448201527f6b656e206f776e6572206f7220617070726f76656420666f7220616c6c000000606482015260840161068a565b61072b8383611040565b505050565b61073b335b826110ae565b6107575760405162461bcd60e51b815260040161068a90613154565b61072b83838361112d565b6000828152600a602052604090206001015461077d816112a6565b61072b83836112b0565b600061079283610b6c565b82106107f45760405162461bcd60e51b815260206004820152602b60248201527f455243373231456e756d657261626c653a206f776e657220696e646578206f7560448201526a74206f6620626f756e647360a81b606482015260840161068a565b506001600160a01b03919091166000908152600660209081526040808320938352929052205490565b6000610827611336565b905090565b6001600160a01b038116331461089c5760405162461bcd60e51b815260206004820152602f60248201527f416363657373436f6e74726f6c3a2063616e206f6e6c792072656e6f756e636560448201526e103937b632b9903337b91039b2b63360891b606482015260840161068a565b6108a68282611461565b5050565b60006108b4610d3e565b65ffffffffffff1682106109015760405162461bcd60e51b81526020600482015260146024820152730566f7465733a20667574757265206c6f6f6b75760641b604482015260640161068a565b61092b61090d836114c8565b6001600160a01b0385166000908152600e6020526040902090611531565b6001600160e01b03169392505050565b7f9f2df0fed2c77648de5860a4cc508cd0818c85b8b8a1ab4ceeef8d981c8956a6610965816112a6565b600061097060115490565b9050610980601180546001019055565b61072b83826115e6565b61072b83838360405180602001604052806000815250610d84565b6109ae33610735565b6109ca5760405162461bcd60e51b815260040161068a90613154565b6109d381611600565b50565b6060436109e1610d3e565b65ffffffffffff1614610a365760405162461bcd60e51b815260206004820152601860248201527f566f7465733a2062726f6b656e20636c6f636b206d6f64650000000000000000604482015260640161068a565b5060408051808201909152601d81527f6d6f64653d626c6f636b6e756d6265722666726f6d3d64656661756c74000000602082015290565b6000610a7960085490565b8210610adc5760405162461bcd60e51b815260206004820152602c60248201527f455243373231456e756d657261626c653a20676c6f62616c20696e646578206f60448201526b7574206f6620626f756e647360a01b606482015260840161068a565b60088281548110610aef57610aef6131a1565b90600052602060002001549050919050565b336108a681836116ad565b6000818152600260205260408120546001600160a01b0316806105565760405162461bcd60e51b8152602060048201526018602482015277115490cdcc8c4e881a5b9d985b1a59081d1bdad95b88125160421b604482015260640161068a565b60006001600160a01b038216610bd65760405162461bcd60e51b815260206004820152602960248201527f4552433732313a2061646472657373207a65726f206973206e6f7420612076616044820152683634b21037bbb732b960b91b606482015260840161068a565b506001600160a01b031660009081526003602052604090205490565b6001600160a01b038116600090815260106020526040812054610556565b600060608082808083610c447f0000000000000000000000000000000000000000000000000000000000000000600b61171f565b610c6f7f0000000000000000000000000000000000000000000000000000000000000000600c61171f565b60408051600080825260208201909252600f60f81b9b939a50919850469750309650945092509050565b6000610ca3610d3e565b65ffffffffffff168210610cf05760405162461bcd60e51b81526020600482015260146024820152730566f7465733a20667574757265206c6f6f6b75760641b604482015260640161068a565b610d04610cfc836114c8565b600f90611531565b6001600160e01b031692915050565b6000918252600a602090815260408084206001600160a01b0393909316845291905290205460ff1690565b6000610827436117c3565b60606001805461056b9061311f565b6001600160a01b0381166000908152600e60205260408120610d049061182a565b6108a6338383611864565b610d8e33836110ae565b610daa5760405162461bcd60e51b815260040161068a90613154565b610db684848484611933565b50505050565b83421115610e0c5760405162461bcd60e51b815260206004820152601860248201527f566f7465733a207369676e617475726520657870697265640000000000000000604482015260640161068a565b604080517fe48329057bfd03d55e49b547132e39cffd9c1820ad7b9d4c5307691425d15adf60208201526001600160a01b038816918101919091526060810186905260808101859052600090610e8690610e7e9060a00160405160208183030381529060405280519060200120611966565b858585611993565b9050610e91816119bb565b8614610ed65760405162461bcd60e51b8152602060048201526014602482015273566f7465733a20696e76616c6964206e6f6e636560601b604482015260640161068a565b610ee081886116ad565b50505050505050565b6060610ef482610fe1565b6000610f0b60408051602081019091526000815290565b90506000815111610f2b5760405180602001604052806000815250610f56565b80610f35846119e3565b604051602001610f469291906131b7565b6040516020818303038152906040525b9392505050565b6000828152600a6020526040902060010154610f78816112a6565b61072b8383611461565b6000602083511015610f9e57610f9783611a80565b9050610556565b82828151610faf9260200190612cc1565b5060ff9050610556565b90565b60006001600160e01b03198216637965db0b60e01b1480610556575061055682611abe565b6000818152600260205260409020546001600160a01b03166109d35760405162461bcd60e51b8152602060048201526018602482015277115490cdcc8c4e881a5b9d985b1a59081d1bdad95b88125160421b604482015260640161068a565b600081815260046020526040902080546001600160a01b0319166001600160a01b038416908117909155819061107582610b0c565b6001600160a01b03167f8c5be1e5ebec7d5bd14f71427d1e84f3dd0314c0f7b2291e5b200ac8c7c3b92560405160405180910390a45050565b6000806110ba83610b0c565b9050806001600160a01b0316846001600160a01b0316148061110157506001600160a01b0380821660009081526005602090815260408083209388168352929052205460ff165b806111255750836001600160a01b031661111a846105ee565b6001600160a01b0316145b949350505050565b826001600160a01b031661114082610b0c565b6001600160a01b0316146111665760405162461bcd60e51b815260040161068a906131e6565b6001600160a01b0382166111c85760405162461bcd60e51b8152602060048201526024808201527f4552433732313a207472616e7366657220746f20746865207a65726f206164646044820152637265737360e01b606482015260840161068a565b6111d58383836001611ae3565b826001600160a01b03166111e882610b0c565b6001600160a01b03161461120e5760405162461bcd60e51b815260040161068a906131e6565b600081815260046020908152604080832080546001600160a01b03199081169091556001600160a01b0387811680865260038552838620805460001901905590871680865283862080546001019055868652600290945282852080549092168417909155905184937fddf252ad1be2c89b69c2b068fc378daa952ba7f163c4a11628f55a4df523b3ef91a461072b8383836001611aef565b6109d38133611afb565b6112ba8282610d13565b6108a6576000828152600a602090815260408083206001600160a01b03851684529091529020805460ff191660011790556112f23390565b6001600160a01b0316816001600160a01b0316837f2f8788117e7eff1d82e926ec794901d17c78024a50270940304540a733656f0d60405160405180910390a45050565b6000306001600160a01b037f00000000000000000000000000000000000000000000000000000000000000001614801561138f57507f000000000000000000000000000000000000000000000000000000000000000046145b156113b957507f000000000000000000000000000000000000000000000000000000000000000090565b610827604080517f8b73c3c69bb8fe3d512ecc4cf759cc79239f7b179b0ffacaa9a75d522b39400f60208201527f0000000000000000000000000000000000000000000000000000000000000000918101919091527f000000000000000000000000000000000000000000000000000000000000000060608201524660808201523060a082015260009060c00160405160208183030381529060405280519060200120905090565b61146b8282610d13565b156108a6576000828152600a602090815260408083206001600160a01b0385168085529252808320805460ff1916905551339285917ff6391f5c32d9c69d2a47ea670b442974b53935d1edc7fd64eb21e047a839171b9190a45050565b600063ffffffff82111561152d5760405162461bcd60e51b815260206004820152602660248201527f53616665436173743a2076616c756520646f65736e27742066697420696e203360448201526532206269747360d01b606482015260840161068a565b5090565b81546000908181600581111561158e57600061154c84611b54565b6115569085613241565b60008881526020902090915081015463ffffffff908116908716101561157e5780915061158c565b611589816001613258565b92505b505b600061159c87878585611c39565b905080156115d8576115c1876115b3600184613241565b600091825260209091200190565b5464010000000090046001600160e01b03166115db565b60005b979650505050505050565b6108a6828260405180602001604052806000815250611c8f565b600061160b82610b0c565b905061161b816000846001611ae3565b61162482610b0c565b600083815260046020908152604080832080546001600160a01b03199081169091556001600160a01b0385168085526003845282852080546000190190558785526002909352818420805490911690555192935084927fddf252ad1be2c89b69c2b068fc378daa952ba7f163c4a11628f55a4df523b3ef908390a46108a6816000846001611aef565b6001600160a01b038281166000818152600d602052604080822080548686166001600160a01b0319821681179092559151919094169392849290917f3134e8a2e6d97e929a7e54011ea5485d7d196dd5f0ba4d4ef95803e8e3fc257f9190a461072b818361171a86611cc2565b611ccd565b606060ff831461173257610f9783611e39565b81805461173e9061311f565b80601f016020809104026020016040519081016040528092919081815260200182805461176a9061311f565b80156117b75780601f1061178c576101008083540402835291602001916117b7565b820191906000526020600020905b81548152906001019060200180831161179a57829003601f168201915b50505050509050610556565b600065ffffffffffff82111561152d5760405162461bcd60e51b815260206004820152602660248201527f53616665436173743a2076616c756520646f65736e27742066697420696e203460448201526538206269747360d01b606482015260840161068a565b8054600090801561185b57611844836115b3600184613241565b5464010000000090046001600160e01b0316610f56565b60009392505050565b816001600160a01b0316836001600160a01b031614156118c65760405162461bcd60e51b815260206004820152601960248201527f4552433732313a20617070726f766520746f2063616c6c657200000000000000604482015260640161068a565b6001600160a01b03838116600081815260056020908152604080832094871680845294825291829020805460ff191686151590811790915591519182527f17307eab39ab6107e8899845ad3d59bd9653f200f220920489ca2b5937696c31910160405180910390a3505050565b61193e84848461112d565b61194a84848484611e78565b610db65760405162461bcd60e51b815260040161068a90613270565b6000610556611973611336565b8360405161190160f01b8152600281019290925260228201526042902090565b60008060006119a487878787611f82565b915091506119b181612046565b5095945050505050565b6001600160a01b03811660009081526010602052604090208054600181018255905b50919050565b606060006119f083612194565b600101905060008167ffffffffffffffff811115611a1057611a10612fa3565b6040519080825280601f01601f191660200182016040528015611a3a576020820181803683370190505b5090508181016020015b600019016f181899199a1a9b1b9c1cb0b131b232b360811b600a86061a8153600a8504945084611a7357611a78565b611a44565b509392505050565b600080829050601f81511115611aab578260405163305a27a960e01b815260040161068a9190612ddc565b8051611ab6826132d8565b179392505050565b60006001600160e01b0319821663780e9d6360e01b148061055657506105568261226c565b610db6848484846122bc565b610db6848484846123f0565b611b058282610d13565b6108a657611b1281612400565b611b1d836020612412565b604051602001611b2e9291906132fc565b60408051601f198184030181529082905262461bcd60e51b825261068a91600401612ddc565b600081611b6357506000919050565b60006001611b70846125ae565b901c6001901b90506001818481611b8957611b896132c2565b048201901c90506001818481611ba157611ba16132c2565b048201901c90506001818481611bb957611bb96132c2565b048201901c90506001818481611bd157611bd16132c2565b048201901c90506001818481611be957611be96132c2565b048201901c90506001818481611c0157611c016132c2565b048201901c90506001818481611c1957611c196132c2565b048201901c9050610f5681828581611c3357611c336132c2565b04612642565b60005b81831015611a78576000611c508484612658565b60008781526020902090915063ffffffff86169082015463ffffffff161115611c7b57809250611c89565b611c86816001613258565b93505b50611c3c565b611c998383612673565b611ca66000848484611e78565b61072b5760405162461bcd60e51b815260040161068a90613270565b600061055682610b6c565b816001600160a01b0316836001600160a01b031614158015611cef5750600081115b1561072b576001600160a01b03831615611d97576001600160a01b0383166000908152600e602052604081208190611d3290612816611d2d86612822565b61288b565b6001600160e01b031691506001600160e01b03169150846001600160a01b03167fdec2bacdd2f05b59de34da9b523dff8be42e5e38e818c82fdb0bae774387a7248383604051611d8c929190918252602082015260400190565b60405180910390a250505b6001600160a01b0382161561072b576001600160a01b0382166000908152600e602052604081208190611dd0906128d4611d2d86612822565b6001600160e01b031691506001600160e01b03169150836001600160a01b03167fdec2bacdd2f05b59de34da9b523dff8be42e5e38e818c82fdb0bae774387a7248383604051611e2a929190918252602082015260400190565b60405180910390a25050505050565b60606000611e46836128e0565b604080516020808252818301909252919250600091906020820181803683375050509182525060208101929092525090565b60006001600160a01b0384163b15611f7a57604051630a85bd0160e11b81526001600160a01b0385169063150b7a0290611ebc903390899088908890600401613371565b602060405180830381600087803b158015611ed657600080fd5b505af1925050508015611f06575060408051601f3d908101601f19168201909252611f03918101906133ae565b60015b611f60573d808015611f34576040519150601f19603f3d011682016040523d82523d6000602084013e611f39565b606091505b508051611f585760405162461bcd60e51b815260040161068a90613270565b805181602001fd5b6001600160e01b031916630a85bd0160e11b149050611125565b506001611125565b6000807f7fffffffffffffffffffffffffffffff5d576e7357a4501ddfe92f46681b20a0831115611fb9575060009050600361203d565b6040805160008082526020820180845289905260ff881692820192909252606081018690526080810185905260019060a0016020604051602081039080840390855afa15801561200d573d6000803e3d6000fd5b5050604051601f1901519150506001600160a01b0381166120365760006001925092505061203d565b9150600090505b94509492505050565b600081600481111561205a5761205a6133cb565b14156120635750565b6001816004811115612077576120776133cb565b14156120c55760405162461bcd60e51b815260206004820152601860248201527f45434453413a20696e76616c6964207369676e61747572650000000000000000604482015260640161068a565b60028160048111156120d9576120d96133cb565b14156121275760405162461bcd60e51b815260206004820152601f60248201527f45434453413a20696e76616c6964207369676e6174757265206c656e67746800604482015260640161068a565b600381600481111561213b5761213b6133cb565b14156109d35760405162461bcd60e51b815260206004820152602260248201527f45434453413a20696e76616c6964207369676e6174757265202773272076616c604482015261756560f01b606482015260840161068a565b60008072184f03e93ff9f4daa797ed6e38ed64bf6a1f0160401b83106121d35772184f03e93ff9f4daa797ed6e38ed64bf6a1f0160401b830492506040015b6d04ee2d6d415b85acef810000000083106121ff576d04ee2d6d415b85acef8100000000830492506020015b662386f26fc10000831061221d57662386f26fc10000830492506010015b6305f5e1008310612235576305f5e100830492506008015b612710831061224957612710830492506004015b6064831061225b576064830492506002015b600a83106105565760010192915050565b60006001600160e01b031982166380ac58cd60e01b148061229d57506001600160e01b03198216635b5e139f60e01b145b8061055657506301ffc9a760e01b6001600160e01b0319831614610556565b600181111561232b5760405162461bcd60e51b815260206004820152603560248201527f455243373231456e756d657261626c653a20636f6e7365637574697665207472604482015274185b9cd9995c9cc81b9bdd081cdd5c1c1bdc9d1959605a1b606482015260840161068a565b816001600160a01b0385166123875761238281600880546000838152600960205260408120829055600182018355919091527ff3f7a9fe364faab93b216da50a3214154f22a0a2b415b23a84c8169e8b636ee30155565b6123aa565b836001600160a01b0316856001600160a01b0316146123aa576123aa8582612908565b6001600160a01b0384166123c6576123c1816129a5565b6123e9565b846001600160a01b0316846001600160a01b0316146123e9576123e98482612a54565b5050505050565b6123fb848483612a98565b610db6565b60606105566001600160a01b03831660145b606060006124218360026133e1565b61242c906002613258565b67ffffffffffffffff81111561244457612444612fa3565b6040519080825280601f01601f19166020018201604052801561246e576020820181803683370190505b509050600360fc1b81600081518110612489576124896131a1565b60200101906001600160f81b031916908160001a905350600f60fb1b816001815181106124b8576124b86131a1565b60200101906001600160f81b031916908160001a90535060006124dc8460026133e1565b6124e7906001613258565b90505b600181111561255f576f181899199a1a9b1b9c1cb0b131b232b360811b85600f166010811061251b5761251b6131a1565b1a60f81b828281518110612531576125316131a1565b60200101906001600160f81b031916908160001a90535060049490941c9361255881613400565b90506124ea565b508315610f565760405162461bcd60e51b815260206004820181905260248201527f537472696e67733a20686578206c656e67746820696e73756666696369656e74604482015260640161068a565b600080608083901c156125c357608092831c92015b604083901c156125d557604092831c92015b602083901c156125e757602092831c92015b601083901c156125f957601092831c92015b600883901c1561260b57600892831c92015b600483901c1561261d57600492831c92015b600283901c1561262f57600292831c92015b600183901c156105565760010192915050565b60008183106126515781610f56565b5090919050565b60006126676002848418613417565b610f5690848416613258565b6001600160a01b0382166126c95760405162461bcd60e51b815260206004820181905260248201527f4552433732313a206d696e7420746f20746865207a65726f2061646472657373604482015260640161068a565b6000818152600260205260409020546001600160a01b03161561272e5760405162461bcd60e51b815260206004820152601c60248201527f4552433732313a20746f6b656e20616c7265616479206d696e74656400000000604482015260640161068a565b61273c600083836001611ae3565b6000818152600260205260409020546001600160a01b0316156127a15760405162461bcd60e51b815260206004820152601c60248201527f4552433732313a20746f6b656e20616c7265616479206d696e74656400000000604482015260640161068a565b6001600160a01b038216600081815260036020908152604080832080546001019055848352600290915280822080546001600160a01b0319168417905551839291907fddf252ad1be2c89b69c2b068fc378daa952ba7f163c4a11628f55a4df523b3ef908290a46108a6600083836001611aef565b6000610f568284613439565b60006001600160e01b0382111561152d5760405162461bcd60e51b815260206004820152602760248201527f53616665436173743a2076616c756520646f65736e27742066697420696e20326044820152663234206269747360c81b606482015260840161068a565b6000806128c76128a961289c610d3e565b65ffffffffffff166114c8565b6128bf6128b58861182a565b868863ffffffff16565b879190612b0e565b915091505b935093915050565b6000610f568284613461565b600060ff8216601f81111561055657604051632cd44ac360e21b815260040160405180910390fd5b6000600161291584610b6c565b61291f9190613241565b600083815260076020526040902054909150808214612972576001600160a01b03841660009081526006602090815260408083208584528252808320548484528184208190558352600790915290208190555b5060009182526007602090815260408084208490556001600160a01b039094168352600681528383209183525290812055565b6008546000906129b790600190613241565b600083815260096020526040812054600880549394509092849081106129df576129df6131a1565b906000526020600020015490508060088381548110612a0057612a006131a1565b6000918252602080832090910192909255828152600990915260408082208490558582528120556008805480612a3857612a38613483565b6001900381819060005260206000200160009055905550505050565b6000612a5f83610b6c565b6001600160a01b039093166000908152600660209081526040808320868452825280832085905593825260079052919091209190915550565b6001600160a01b038316612aba57612ab7600f6128d4611d2d84612822565b50505b6001600160a01b038216612adc57612ad9600f612816611d2d84612822565b50505b6001600160a01b038381166000908152600d602052604080822054858416835291205461072b92918216911683611ccd565b6000806128c7858585825460009081908015612c67576000612b35876115b3600185613241565b60408051808201909152905463ffffffff8082168084526401000000009092046001600160e01b031660208401529192509087161015612bb75760405162461bcd60e51b815260206004820152601b60248201527f436865636b706f696e743a2064656372656173696e67206b6579730000000000604482015260640161068a565b8563ffffffff16816000015163ffffffff161415612c075784612bdf886115b3600186613241565b80546001600160e01b03929092166401000000000263ffffffff909216919091179055612c57565b6040805180820190915263ffffffff80881682526001600160e01b0380881660208085019182528b54600181018d5560008d81529190912094519151909216640100000000029216919091179101555b6020015192508391506128cc9050565b50506040805180820190915263ffffffff80851682526001600160e01b0380851660208085019182528854600181018a5560008a8152918220955192519093166401000000000291909316179201919091559050816128cc565b828054612ccd9061311f565b90600052602060002090601f016020900481019282612cef5760008555612d35565b82601f10612d0857805160ff1916838001178555612d35565b82800160010185558215612d35579182015b82811115612d35578251825591602001919060010190612d1a565b5061152d9291505b8082111561152d5760008155600101612d3d565b6001600160e01b0319811681146109d357600080fd5b600060208284031215612d7957600080fd5b8135610f5681612d51565b60005b83811015612d9f578181015183820152602001612d87565b83811115610db65750506000910152565b60008151808452612dc8816020860160208601612d84565b601f01601f19169290920160200192915050565b602081526000610f566020830184612db0565b600060208284031215612e0157600080fd5b5035919050565b80356001600160a01b0381168114612e1f57600080fd5b919050565b60008060408385031215612e3757600080fd5b612e4083612e08565b946020939093013593505050565b600080600060608486031215612e6357600080fd5b612e6c84612e08565b9250612e7a60208501612e08565b9150604084013590509250925092565b60008060408385031215612e9d57600080fd5b82359150612ead60208401612e08565b90509250929050565b600060208284031215612ec857600080fd5b610f5682612e08565b60ff60f81b881681526000602060e081840152612ef160e084018a612db0565b8381036040850152612f03818a612db0565b606085018990526001600160a01b038816608086015260a0850187905284810360c0860152855180825283870192509083019060005b81811015612f5557835183529284019291840191600101612f39565b50909c9b505050505050505050505050565b60008060408385031215612f7a57600080fd5b612f8383612e08565b915060208301358015158114612f9857600080fd5b809150509250929050565b634e487b7160e01b600052604160045260246000fd5b60008060008060808587031215612fcf57600080fd5b612fd885612e08565b9350612fe660208601612e08565b925060408501359150606085013567ffffffffffffffff8082111561300a57600080fd5b818701915087601f83011261301e57600080fd5b81358181111561303057613030612fa3565b604051601f8201601f19908116603f0116810190838211818310171561305857613058612fa3565b816040528281528a602084870101111561307157600080fd5b82602086016020830137600060208483010152809550505050505092959194509250565b60008060008060008060c087890312156130ae57600080fd5b6130b787612e08565b95506020870135945060408701359350606087013560ff811681146130db57600080fd5b9598949750929560808101359460a0909101359350915050565b6000806040838503121561310857600080fd5b61311183612e08565b9150612ead60208401612e08565b600181811c9082168061313357607f821691505b602082108114156119dd57634e487b7160e01b600052602260045260246000fd5b6020808252602d908201527f4552433732313a2063616c6c6572206973206e6f7420746f6b656e206f776e6560408201526c1c881bdc88185c1c1c9bdd9959609a1b606082015260800190565b634e487b7160e01b600052603260045260246000fd5b600083516131c9818460208801612d84565b8351908301906131dd818360208801612d84565b01949350505050565b60208082526025908201527f4552433732313a207472616e736665722066726f6d20696e636f72726563742060408201526437bbb732b960d91b606082015260800190565b634e487b7160e01b600052601160045260246000fd5b6000828210156132535761325361322b565b500390565b6000821982111561326b5761326b61322b565b500190565b60208082526032908201527f4552433732313a207472616e7366657220746f206e6f6e20455243373231526560408201527131b2b4bb32b91034b6b83632b6b2b73a32b960711b606082015260800190565b634e487b7160e01b600052601260045260246000fd5b805160208083015191908110156119dd5760001960209190910360031b1b16919050565b7f416363657373436f6e74726f6c3a206163636f756e7420000000000000000000815260008351613334816017850160208801612d84565b7001034b99036b4b9b9b4b733903937b6329607d1b6017918401918201528351613365816028840160208801612d84565b01602801949350505050565b6001600160a01b03858116825284166020820152604081018390526080606082018190526000906133a490830184612db0565b9695505050505050565b6000602082840312156133c057600080fd5b8151610f5681612d51565b634e487b7160e01b600052602160045260246000fd5b60008160001904831182151516156133fb576133fb61322b565b500290565b60008161340f5761340f61322b565b506000190190565b60008261343457634e487b7160e01b600052601260045260246000fd5b500490565b60006001600160e01b03838116908316818110156134595761345961322b565b039392505050565b60006001600160e01b038281168482168083038211156131dd576131dd61322b565b634e487b7160e01b600052603160045260246000fdfea264697066735822122069fbb236b9f7aef222259f24099baff25ac37788ec41bd0f5164409ca2e78c9864736f6c63430008090033",
  "linkReferences": {},
  "deployedLinkReferences": {}
}