{
  "_format": "hh-sol-artifact-1",
  "contractName": "Vault",
  "sourceName": "contracts/Vault.sol",
  "abi": [
    {
      "inputs": [
        {
          "internalType": "address",
          "name": "token_",
          "type": "address"
        }
      ],
      "stateMutability": "nonpayable",
      "type": "constructor"
    },
    {
      "inputs": [
        {
          "internalType": "address",
          "name": "",
          "type": "address"
        }
      ],
      "name": "balanceOf",
      "outputs": [
        {
          "internalType": "uint256",
          "name": "",
          "type": "uint256"
        }
      ],
      "stateMutability": "view",
      "type": "function"
    },
    {
      "inputs": [
        {
          "internalType": "uint256",
          "name": "amount_",
          "type": "uint256"
        }
      ],
      "name": "deposit",
      "outputs": [],
      "stateMutability": "nonpayable",
      "type": "function"
    },
    {
      "inputs": [],
      "name": "token",
      "outputs": [
        {
          "internalType": "contract IERC20",
          "name": "",
          "type": "address"
        }
      ],
      "stateMutability": "view",
      "type": "function"
    },
    {
      "inputs": [],
      "name": "totalSupply",
      "outputs": [
        {
          "internalType": "uint256",
          "name": "",
          "type": "uint256"
        }
      ],
      "stateMutability": "view",
      "type": "function"
    },
    {
      "inputs": [
        {
          "internalType": "uint256",
          "name": "shares_",
          "type": "uint256"
        }
      ],
      "name": "withdraw",
      "outputs": [],
      "stateMutability": "nonpayable",
      "type": "function"
    }
  ],
  "bytecode": "0x60a060405234801561001057600080fd5b506040516108a63803806108a683398101604081905261002f91610040565b6001600160a01b0316608052610070565b60006020828403121561005257600080fd5b81516001600160a01b038116811461006957600080fd5b9392505050565b6080516108006100a66000396000818160c50152818161010f015281816101e301528181610237015261030f01526108006000f3fe608060405234801561001057600080fd5b50600436106100575760003560e01c806318160ddd1461005c5780632e1a7d4d1461007857806370a082311461008d578063b6b55f25146100ad578063fc0c546a146100c0575b600080fd5b61006560005481565b6040519081526020015b60405180910390f35b61008b610086366004610644565b6100f4565b005b61006561009b36600461065d565b60016020526000908152604090205481565b61008b6100bb366004610644565b61020e565b6100e77f000000000000000000000000000000000000000000000000000000000000000081565b60405161006f919061068d565b600080546040516370a0823160e01b81526001600160a01b037f000000000000000000000000000000000000000000000000000000000000000016906370a082319061014490309060040161068d565b602060405180830381865afa158015610161573d6000803e3d6000fd5b505050506040513d601f19601f8201168201806040525081019061018591906106a1565b61018f90846106d0565b61019991906106ed565b9050816000808282546101ac919061070f565b909155505033600090815260016020526040812080548492906101d090849061070f565b9091555061020a90506001600160a01b037f0000000000000000000000000000000000000000000000000000000000000000163383610337565b5050565b600080546000036102205750806102c7565b6040516370a0823160e01b81526001600160a01b037f000000000000000000000000000000000000000000000000000000000000000016906370a082319061026c90309060040161068d565b602060405180830381865afa158015610289573d6000803e3d6000fd5b505050506040513d601f19601f820116820180604052508101906102ad91906106a1565b6000546102ba90846106d0565b6102c491906106ed565b90505b806000808282546102d89190610722565b909155505033600090815260016020526040812080548392906102fc908490610722565b9091555061020a90506001600160a01b037f00000000000000000000000000000000000000000000000000000000000000001633308561039f565b6040516001600160a01b03831660248201526044810182905261039a90849063a9059cbb60e01b906064015b60408051601f198184030181529190526020810180516001600160e01b03166001600160e01b0319909316929092179091526103dd565b505050565b6040516001600160a01b03808516602483015283166044820152606481018290526103d79085906323b872dd60e01b90608401610363565b50505050565b6000610432826040518060400160405280602081526020017f5361666545524332303a206c6f772d6c6576656c2063616c6c206661696c6564815250856001600160a01b03166104b49092919063ffffffff16565b80519091501561039a57808060200190518101906104509190610735565b61039a5760405162461bcd60e51b815260206004820152602a60248201527f5361666545524332303a204552433230206f7065726174696f6e20646964206e6044820152691bdd081cdd58d8d9595960b21b60648201526084015b60405180910390fd5b60606104c384846000856104cb565b949350505050565b60608247101561052c5760405162461bcd60e51b815260206004820152602660248201527f416464726573733a20696e73756666696369656e742062616c616e636520666f6044820152651c8818d85b1b60d21b60648201526084016104ab565b600080866001600160a01b03168587604051610548919061077b565b60006040518083038185875af1925050503d8060008114610585576040519150601f19603f3d011682016040523d82523d6000602084013e61058a565b606091505b509150915061059b878383876105a6565b979650505050505050565b6060831561061557825160000361060e576001600160a01b0385163b61060e5760405162461bcd60e51b815260206004820152601d60248201527f416464726573733a2063616c6c20746f206e6f6e2d636f6e747261637400000060448201526064016104ab565b50816104c3565b6104c3838381511561062a5781518083602001fd5b8060405162461bcd60e51b81526004016104ab9190610797565b60006020828403121561065657600080fd5b5035919050565b60006020828403121561066f57600080fd5b81356001600160a01b038116811461068657600080fd5b9392505050565b6001600160a01b0391909116815260200190565b6000602082840312156106b357600080fd5b5051919050565b634e487b7160e01b600052601160045260246000fd5b80820281158282048414176106e7576106e76106ba565b92915050565b60008261070a57634e487b7160e01b600052601260045260246000fd5b500490565b818103818111156106e7576106e76106ba565b808201808211156106e7576106e76106ba565b60006020828403121561074757600080fd5b8151801515811461068657600080fd5b60005b8381101561077257818101518382015260200161075a565b50506000910152565b6000825161078d818460208701610757565b9190910192915050565b60208152600082518060208401526107b6816040850160208701610757565b601f01601f1916919091016040019291505056fea264697066735822122008d0731692f522eb4c965f52fe32899b68e6747baa8d1e000bd17ef22a771a3f64736f6c63430008120033",
  "linkReferences": {},
  "deployedLinkReferences": {}
}